:100000000C9462000C948A000C948A000C948A0070
:100010000C948A000C948A000C948A000C9453036C
:100020000C948A000C948A000C948A000C948A0028
:100030000C948A000C948A000C948A000C948A0018
:100040000C9492020C948A000C9460020C943A0274
:100050000C948A000C948A000C948A000C948A00F8
:100060000C948A000C948A000000000025002800EF
:100070002B0000000000240027002A0004040404D0
:100080000404040402020202020203030303030342
:10009000010204081020408001020408102001021F
:1000A00004081020000000002300260029000000A2
:1000B0000008000201000003040700000000000027
:1000C0000000C30B11241FBECFEFD8E0DEBFCDBFB1
:1000D00011E0A0E0B1E0ECE0F0E202C005900D928A
:1000E000A432B107D9F722E0A4E2B1E001C01D9229
:1000F000A43BB207E1F710E0C2E6D0E004C02197CC
:10010000FE010E94D80EC136D107C9F70E944004F3
:100110000C9404100C940000CF92DF92EF92FF92A7
:100120000F931F93CF93DF936C017A018B01C0E093
:10013000D0E0CE15DF0581F0D8016D918D01D6019B
:10014000ED91FC910190F081E02DC6010995892B7C
:1001500011F02196EECF7E01C701DF91CF911F9163
:100160000F91FF90EF90DF90CF900895089580E079
:1001700090E00895FC01538D448D252F30E0842FAD
:1001800090E0821B930B541710F0CF9608950197BF
:100190000895FC01918D828D981761F0828DDF01A9
:1001A000A80FB11D5D968C91928D9F5F9F73928F6A
:1001B00090E008958FEF9FEF0895FC01918D828D5F
:1001C000981731F0828DE80FF11D858D90E008952C
:1001D0008FEF9FEF0895FC01918D228D892F90E084
:1001E000805C9F4F821B91098F73992708958DE240
:1001F00091E00E94EB0021E0892B09F420E0822F9E
:100200000895FC01848DDF01A80FB11DA35ABF4FD3
:100210002C91848D90E001968F739927848FA68905
:10022000B7892C93A089B1898C91837080648C9359
:10023000938D848D981306C00288F389E02D808108
:100240008F7D80830895EF92FF920F931F93CF933A
:10025000DF93EC0181E0888F9B8D8C8D981305C016
:10026000E889F989808185FD26C0F62E0B8D10E086
:100270000F5F1F4F0F731127E02E8C8DE8120CC0FB
:100280000FB607FCFACFE889F989808185FFF5CFA1
:10029000CE010E940101F1CF8B8DFE01E80FF11D0F
:1002A000E35AFF4FF0829FB7F8940B8FEA89FB89DE
:1002B000808180620AC09FB7F894EE89FF896083CD
:1002C000E889F98980818370806480839FBF81E0A1
:1002D00090E0DF91CF911F910F91FF90EF900895E3
:1002E000CF93DF93EC01888D8823C9F0EA89FB89DD
:1002F000808185FD05C0A889B9898C9186FD0FC0D4
:100300000FB607FCF5CF808185FFF2CFA889B989A8
:100310008C9185FFEDCFCE010E940101E7CFDF91E7
:10032000CF91089580E090E0892B29F00E94F7009A
:1003300081110C9400000895833081F028F48130FD
:1003400099F08230A1F008958730A9F08830B9F093
:100350008430D1F4809180008F7D03C08091800033
:100360008F7780938000089584B58F7702C084B51D
:100370008F7D84BD08958091B0008F7703C08091F8
:10038000B0008F7D8093B00008951F93CF93DF93CB
:10039000282F30E0F901E255FF4F8491F901E05731
:1003A000FF4FD491F901E458FF4FC491CC23C1F021
:1003B000162F81110E949C01EC2FF0E0EE0FFF1F21
:1003C000E859FF4FA591B4919FB7F894111104C05B
:1003D0008C91D095D82302C0EC91DE2BDC939FBF8B
:1003E000DF91CF911F910895CF92DF92EF92FF920C
:1003F000CF93DF93EC01072E000C880B990B0E9422
:10040000740D6B017C0120E030E040E45FE30E946A
:10041000240E20E030E048E452E40E94CA0C0E941E
:100420003C0DC617D707D4F020E030E040EA5FE388
:10043000C701B6010E94240E20E030E048E452E4F7
:100440000E94CA0C20E030E040E85FE30E94590CB3
:100450000E943C0D21E06C177D070CF420E0822FF8
:1004600090E0DF91CF91FF90EF90DF90CF900895D3
:100470000E94FF0F1F920F920FB60F9211242F931D
:100480003F934F935F936F937F938F939F93AF931C
:10049000BF93EF93FF938DE291E00E940101FF91E2
:1004A000EF91BF91AF919F918F917F916F915F91EC
:1004B0004F913F912F910F900FBE0F901F90189565
:1004C0001F920F920FB60F9211242F938F939F9329
:1004D000EF93FF93E0913D01F0913E018081E09127
:1004E0004301F091440182FD12C090818091460148
:1004F0008F5F8F7320914701821751F0E091460181
:10050000F0E0E35DFE4F958F8093460101C080814E
:10051000FF91EF919F918F912F910F900FBE0F90B0
:100520001F9018951F920F920FB60F9211242F93C0
:100530003F938F939F93AF93BF93809129019091A5
:100540002A01A0912B01B0912C013091280123E0C8
:10055000230F2D3720F40196A11DB11D05C026E8FB
:10056000230F0296A11DB11D20932801809329011C
:1005700090932A01A0932B01B0932C018091240128
:1005800090912501A0912601B09127010196A11D0E
:10059000B11D8093240190932501A0932601B0936F
:1005A0002701BF91AF919F918F913F912F910F9014
:1005B0000FBE0F901F9018958F929F92AF92BF928F
:1005C000CF92DF92EF92FF920F931F93CF93DF931F
:1005D000DA018D919C91DB011C96ED91FC911D97A8
:1005E0008E179F070CF04DC0FC01EE0FFF1F1A96EF
:1005F0006D917C911B97E60FF71FA080B1808170F1
:1006000099276C01B1E0CB26892B19F48CE99FEF77
:1006100002C084E690E07901EA014C01800E911E4F
:10062000B401C5010E94F401892B99F4800E911E3A
:10063000B401C5010E94F401892B71F4B801680D61
:10064000791DC5010E94F401892BF1F023E030E00F
:1006500005C021E030E002C022E030E0F7018081F7
:1006600091810196821793071CF49183808307C0C0
:100670001182108288819981019699838883C601AD
:1006800005C081E090E002C08FEF9FEFDF91CF9136
:100690001F910F91FF90EF90DF90CF90BF90AF90A0
:1006A0009F908F9008951F920F920FB60F92112472
:1006B0002F933F934F935F936F937F938F939F936A
:1006C000AF93BF93CF93DF93EF93FF932091CB0131
:1006D00030E0F901E255FF4F8491F901E057FF4FF7
:1006E000D491F901E458FF4FC491CC2379F08111E2
:1006F0000E949C01EC2FF0E0EE0FFF1FEC55FF4F26
:10070000A591B491EC91ED2381E009F480E0209172
:10071000CF013091D0012F5F3F4F3093D001209314
:10072000CF019091CE01953618F096E09093CA01D2
:100730009091CA019430C9F128F4923069F0933055
:10074000D1F05EC0953009F451C0963009F058C020
:1007500091E090939B0251C0811152C02091CF0132
:100760003091D0012436310508F442C010929B022A
:100770001092CE011CC0813009F042C0E091CE0140
:1007800091E09E0F9093CE01F0E02091CF01309147
:10079000D001EE0FFF1FE653FE4F308727831092E4
:1007A000D0011092CF0194E029C0811117C0E091CF
:1007B000CE0191E09E0F9093CE01F0E02091CF0109
:1007C0003091D001EE0FFF1FE653FE4F3087278395
:1007D0001092D0011092CF0193E010C02091CF0170
:1007E0003091D0012536310558F007C0811108C07D
:1007F0001092D0011092CF0103C095E09093CA01EE
:100800009091CD019923B9F081110AC08091CC015A
:10081000882321F08091CC0161E009C02D9A0BC0A2
:100820008091CC01882331F08091CC0160E00E945E
:10083000C50101C02D98FF91EF91DF91CF91BF913C
:10084000AF919F918F917F916F915F914F913F9168
:100850002F910F900FBE0F901F901895009769F081
:10086000FC0101900020E9F73197AF01481B590BBB
:10087000BC018DE291E00C948C0080E090E0089542
:10088000CF93DF93CDB7DEB7A9970FB6F894DEBF4D
:100890000FBECDBF789484B5826084BD84B581607D
:1008A00084BD85B5826085BD85B5816085BD80913B
:1008B0006E00816080936E001092810080918100B3
:1008C00082608093810080918100816080938100AB
:1008D000809180008160809380008091B10084606D
:1008E0008093B1008091B00081608093B0008091CE
:1008F0007A00846080937A0080917A00826080938D
:100900007A0080917A00816080937A0080917A00E9
:10091000806880937A001092C100E0913D01F091CF
:100920003E0112E01083E0913901F0913A0110820A
:10093000E0913B01F0913C018FEC808310924501E6
:10094000E0914101F091420186E08083E0913F0116
:10095000F0914001808180618083E0913F01F091BE
:100960004001808188608083E0913F01F0914001E7
:10097000808180688083E0913F01F0914001808117
:100980008F7D808388E191E00E942E0481E291E0D6
:100990000E942E04F8941093B0001093B10084E6E6
:1009A0008093B3001092B20010937000789410936B
:1009B000CA011092CE018091CB0190E0FC01E0577A
:1009C000FF4F2491FC01E458FF4F84918823C9F024
:1009D00090E0880F991FFC01EE58FF4F459154910C
:1009E000FC01E859FF4FA591B4919FB7F894FA0123
:1009F00080812095822380838C91E22FE823EC93E1
:100A00009FBF20919C0230919D0239A728A7D90150
:100A10001396ED90FC90149721ED31E0F7013387A8
:100A200022878091CE0190E09587848780919B02F8
:100A300090E0978786878091CA01853009F0ECC0E5
:100A40008091D3019091D401885891098D359105F9
:100A500088F48091CE01843041F48091D501909149
:100A6000D6018097479708F4DAC08091CE0184348C
:100A700008F069C08091CE018A3108F441C08091AC
:100A8000D1019091D201843F914008F446C08091F9
:100A9000D3019091D40185974B9790F5E7EDF1E064
:100AA00082E090E0812C912C5401AC014F5F5F4FAC
:100AB0002091CE0130E0421753075CF4DF0112971A
:100AC0002D913C91275031092730310508F4C9C0D8
:100AD000CA01019795958795D70119969C938E9396
:100AE00018970C972CF419961C921E92189708C010
:100AF000F70184829582A682B78284E090E040C6A6
:100B00008091CE018A3108F41FC18091D10190916A
:100B1000D2018032934008F0C1C0D70119961C92CF
:100B20001E9218978FEF9FEFDC01F7018483958366
:100B3000A683B78305C0F70184829582A682B78217
:100B40008BE090E01DC68091D5019091D601825432
:100B500091098E9708F08ECF80E090E040E050E061
:100B6000BA01FC01E952FE4F20813181295031093F
:100B70002930310508F07ECFFC01E752FE4F20817D
:100B80003181275131092231310508F05DC0440F10
:100B9000551F661F771F416004968038910509F73D
:100BA000E0E2F0E0D7011996FC93EE9318971496C3
:100BB0004D935D936D937C931797E3E0F0E0ED9395
:100BC000FC93A8A5B9A51396ED91FC9114972481E7
:100BD00035814681578119A28E010F5D1F4FCA01D1
:100BE000B9012AE030E040E050E00E94270C605D4F
:100BF000F80162938F01211531054105510579F7FF
:100C0000CF010E942E0481E291E00E942E0482E036
:100C10008093CA011092CE010E949201F2CE80917F
:100C2000D7019091D8010997099708F01ECFF701D5
:100C3000118610868FEF9FEFDC0184839583A68356
:100C4000B78323E030E099C52081318126503109F6
:100C50002730310508F00ECF440F551F661F771F50
:100C60009BCF20813181235131092F30310548F448
:100C7000880C991CAA1CBB1C689480F802963496B8
:100C800014CF208131812A5031092930310508F0F3
:100C900037CF880C991CAA1CBB1CF0CF8091D301C4
:100CA0009091D401C697869708F04EC08091D501E7
:100CB0009091D601C697869708F046C0E9EDF1E01D
:100CC00083E090E0812C912C5401AC014F5F5F4F89
:100CD0002091CE0130E04217530754F4DF01129700
:100CE0002D913C912C5031092B30310588F0CA01EF
:100CF000019795958795D70119969C938E93189790
:100D00000C970CF018CF19961C921E9218971CC0C5
:100D100020813181255231092B31310548F4880C6D
:100D2000991CAA1CBB1C689480F802963496CDCFFF
:100D3000208131812C5031092A30310528F4880C6A
:100D4000991CAA1CBB1CF1CF8091CE01823208F401
:100D500055C08091D3019091D4010697079708F070
:100D60004DC0E7EDF1E082E090E040E050E0BA01F4
:100D70008C010F5F1F4F2091CE0130E00217130747
:100D8000C4F4DF0112972D913C9111972E51310936
:100D90002731310528F5440F551F661F771F416025
:100DA000208131813496235031092530310520F1DD
:100DB000C801019795958795D70119969C938E93B5
:100DC000189740972CF419961C921E92189716C0EB
:100DD000F70144835583668377838CE090E0D0C429
:100DE0002D913C912C5031092B30310538F4440FB2
:100DF000551F661F771FD4CF0296BACFC8A4D9A4B7
:100E0000F2E0CF0ED11C1BA21AA221E030E03A83FF
:100E100029838091CE018D3080F41BA21AA221E09B
:100E200030E03A832983D7011C968D919C911D97C0
:100E3000181619060CF474C0D8C009E713E09E0117
:100E40002E5D3F4FAE014F5F5F4FB701C6010E945D
:100E5000DC02892B11F79E012E5D3F4FAE014F5FE3
:100E60005F4FB701C6010E94DC020197B1F69E01F7
:100E70002E5D3F4FAE014F5F5F4FB701C6010E942D
:100E8000DC02892B51F6412C512C3201A12CB12CC2
:100E90008091CE0190E029813A81281739079CF58D
:100EA00009E713E09E012E5D3F4FAE014F5F5F4F9C
:100EB000B701C6010E94DC024C019E012E5D3F4F2E
:100EC000AE014F5F5F4FB701C6010E94DC02B1E087
:100ED0008B16910451F4892B09F09FCF440C551CBB
:100EE000661C771C689440F80AC0892809F095CFE1
:100EF000019709F092CF440C551C661C771CEFEF4C
:100F0000AE1ABE0AC5CFD7011996BC92AE921897F9
:100F1000F701448255826682778221E030E02DC459
:100F2000D7011A96ED91FC911B9782E090E09A838D
:100F300089838281938189974E9708F056C083E018
:100F400090E09A838983848195810B970A9708F0B2
:100F50004CC00CEB11E09E012E5D3F4FAE014F5F88
:100F60005F4FB701C6010E94DC02892BF1F50CEB43
:100F700011E09E012E5D3F4FAE014F5F5F4FB70105
:100F8000C6010E94DC02019781F5212C312C210140
:100F9000A12CB12CF7012485358589819A8182178E
:100FA00093070CF03AC10CEB11E09E012E5D3F4F10
:100FB000AE014F5F5F4FB701C6010E94DC023C01EA
:100FC000F3E0AF16B10409F0E6C00CEB11E09E01AE
:100FD0002E5D3F4FAE014F5F5F4FB701C6010E94CC
:100FE000DC026816790609F4D6C0D7011A96ED918D
:100FF000FC911B9782819381C6978697E0F4848148
:1010000095814B974597B8F4DF0116966F0196ECE2
:10101000C90ED11C20E030E040E050E060E070E01C
:1010200080E090E00D911C91119709501109083052
:10103000110508F4FCC08091CE01893370F18281E2
:101040009381895791098335910508F423C125C0FF
:10105000D90112966D917C91139766517109613196
:10106000710508F041C1D501C401880F991FAA1F5D
:10107000BB1F4C015D01689480F84E5F5F4F2C5F91
:101080003F4F4B33510509F414C1D9016D917C9147
:101090006A50710969307105D8F28091CE018232AF
:1010A00031F4828193810A97099708F42DC18281D6
:1010B00093818957910983359105D0F48091CE01B0
:1010C0008132B0F084819581CA97899788F49F0115
:1010D0002A5F3F4F812C912C540143E050E0D9010D
:1010E0006D917C916A5071096930710508F428C1CD
:1010F000828193818C549109C59778F48091CE01B7
:10110000843031F4848195818097479708F476C1C3
:101110008091CE01843408F058C18091CE0186348C
:1011200060F1828193810C970B9708F4B2C125C0BE
:10113000D90112966D917C9113976E5171096731A7
:10114000710508F0DAC1D501C401880F991FAA1FE3
:10115000BB1F4C015D01689480F84E5F5F4F2C5FB0
:101160003F4F4534510509F4AFC1D9016D917C91D0
:101170006C5071096B307105D8F28091CE018835C1
:1011800008F421C282819381855891098B3591059C
:1011900008F4C3C118C20CEB11E09E012E5D3F4F55
:1011A000AE014F5F5F4FB701C6010E94DC024C01E8
:1011B00023E0A216B10481F40CEB11E09E012E5D38
:1011C0003F4FAE014F5F5F4FB701C6010E94DC0287
:1011D0008816990609F009CF6114710479F48A948C
:1011E000892809F002CFD201C101880F991FAA1FD7
:1011F000BB1F1C012D01689420F80BC06A9467285E
:1012000009F0F3CE892809F0F0CE220C331C441CDF
:10121000551C9FEFA91AB90ABDCEB186A086F70169
:10122000248235824682578282E090E0A9C21296DB
:101230000D911C911397015111090D301105E0F426
:1012400001E00E94A10E21601496AC15BD0509F0C5
:10125000E9CEF701248335834683578300E20E9459
:10126000BC0E2283338325E030E03183208380E38A
:1012700090E091878087A5CC12960D911C911397D1
:10128000045011090530110508F0D5CE01E00E9487
:10129000A10EDACF84819581CA97899708F0FDCE97
:1012A0009F012A5F3F4F812C912C540143E050E075
:1012B000ECCE9F012A583F4FD9012D913C912A50E5
:1012C00031092930310508F0E8CE2CE130E0F70192
:1012D00031872087D70184829582A682B7828AE0EF
:1012E00090E08D939C936DCCD90112966D917C9179
:1012F0001397665071096730710508F0CECE880CDF
:10130000991CAA1CBB1CB9CE2091CE01CF01820F23
:10131000911D820F911DDC0112978D919C910A976E
:10132000099708F0C4CEF701118610868FEF9FEF62
:10133000DC0184839583A683B78386E090E020C296
:10134000D90112966D917C911397665171096131A3
:10135000710558F5D501C401880F991FAA1FBB1F3D
:101360004C015D01689480F84E5F5F4F2C5F3F4FEA
:101370004332510509F0B3CE9F012A5B3F4FD9019B
:101380002D913C912A5031092930310508F0B0CE19
:1013900020E130E0F70131872087D70184829582F0
:1013A000A682B78286E090E09CCFD90112966D911B
:1013B0007C911397665071096730710508F098CEDB
:1013C000880C991CAA1CBB1CCFCF848195818954A1
:1013D0009109C39708F0A1CE9F012A5F3F4FBF013B
:1013E0006A577F4F812C912C5401D9014D915C910A
:1013F0004950510949305105B8F08FCE8681978107
:101400000997099708F084CED70119961C921E926D
:1014100018978FEF9FEFDC01F70184839583A683F4
:10142000B78387E090E0ACC1D90112964D915C91F1
:101430001397465151094131510500F112964D91D2
:101440005C911397465051094730510508F065CE1D
:10145000880C991CAA1CBB1C2C5F3F4F2617370712
:1014600021F620E230E0F70131872087D70184821E
:101470009582A682B78287E090E033CFD501C40180
:10148000880F991FAA1FBB1F4C015D01689480F84B
:10149000E3CF848195810997099708F06ECE868104
:1014A00097818C974F9708F068CE808591858997B2
:1014B0004D9708F062CE9F01265F3F4F812C912C03
:1014C000540145E050E051CE9F0126573F4FD901CE
:1014D0002D913C912C5031092B30310508F04DCE27
:1014E00020E230E0F70131872087D701848295829E
:1014F000A682B78288E090E0F4CED90112966D9171
:101500007C911397695071096930710508F035CEE7
:10151000880C991CAA1CBB1C20CE84819581825406
:1015200091098E9708F04FC08F01045C1F4F8DE129
:1015300090E020E030E04091CE0150E0445051096D
:1015400084179507ACF4A80142505109DA014D9176
:101550005C91495051094830510500F134C0D8011F
:101560004D915C91485151094231510548F1CB01EF
:10157000019795958795D70119969C938E93189707
:101580008A970CF1C901330FAA0BBB0BF7018483B7
:101590009583A683B78389E090E0F2C0BC016F5FBA
:1015A0007F4FD8014D915C9147505109473051050B
:1015B000B0F6220F331F216002960C5F1F4FBBCF86
:1015C000220F331FF9CF8091CE018032E1F4828166
:1015D000938106970697B8F48481958109970997B6
:1015E00090F49F012A5F3F4FBF01625C7F4F812CC7
:1015F000912C5401D9014D915C91465051094630CE
:10160000510508F483C0D7011C960D911C911D97BC
:10161000063011050CF4FBCA6F01B2E0CB0ED11CF1
:10162000B5EC8B2EBDE99B2EBCE1AB2EB1E8BB2EF9
:1016300083E0282E312CF60164817581208131816F
:101640003DA32CA380E090E00E94720D2B013C0191
:10165000ACA1BDA1BD0180E090E00E94720D6CA321
:101660007DA38EA39FA32DEC3CEC4CE45FE30E9492
:10167000240E9B01AC01C301B2010E94C50C87FD81
:1016800019C02DEC3CEC4CE45FE3C301B2010E94B5
:10169000240E9B01AC016CA17DA18EA19FA10E9493
:1016A000C50CE82F880FFF0BEE27FF0FEE1FFF275B
:1016B000319602C0E0E0F0E0A501940163E971E039
:1016C00080E091E00E94910E4F01FF0FAA08BB0835
:1016D00086269726A826B926BFEF2B1A3B0AE2E0FA
:1016E000CE0ED11C0215130509F0A5CFD701149613
:1016F0008D929D92AD92BC921797E0E2F0E0199620
:10170000FC93EE9318978FEF9FEFEBCDD9011296D4
:101710004D915C9113974951510943315105E8F4BA
:10172000D501C401880F991FAA1FBB1F4C015D0181
:10173000689480F82C5F3F4F2617370709F05ACF7F
:101740002EE030E0F70131872087D701848295822F
:10175000A682B7828FE090E0C4CDD90112964D9158
:101760005C911397495051094930510508F04BCF0E
:10177000880C991CAA1CBB1CDDCF3183208321CA95
:10178000918380831ECAEDE2F1E01382128288EE1B
:1017900093E0A0E0B0E084839583A683B7838AE0DA
:1017A00091E09183808385EC90E09587848784EC39
:1017B00090E09787868780EC90E0918B808B81EC1E
:1017C00090E0938B828B82EC90E0958B848B86ECFF
:1017D00090E0978B868B118E128E138E148E85E07F
:1017E00090E00E94DE0E2BE030E0FC01318320838C
:1017F000EAECF1E02183138290939D0280939C0296
:10180000E7EAF2E088E0808324EF31E0328321834D
:1018100081E0838314821582168217821086EEE996
:10182000F2E099E0908332832183838314821582CE
:1018300016821782108608950E94490CA59F900D6C
:10184000B49F900DA49F800D911D11240895A1E2D5
:101850001A2EAA1BBB1BFD010DC0AA1FBB1FEE1F2A
:10186000FF1FA217B307E407F50720F0A21BB30B75
:10187000E40BF50B661F771F881F991F1A9469F7F1
:1018800060957095809590959B01AC01BD01CF014D
:101890000895A29FB001B39FC001A39F700D811D49
:1018A0001124911DB29F700D811D1124911D089569
:1018B0005058BB27AA270E94700C0C94EA0D0E9476
:1018C000DC0D38F00E94E30D20F039F49F3F19F44D
:1018D00026F40C94D90D0EF4E095E7FB0C94D30D8F
:1018E000E92F0E94FB0D58F3BA17620773078407AC
:1018F000950720F079F4A6F50C941D0E0EF4E095F2
:101900000B2EBA2FA02D0B01B90190010C01CA01B9
:10191000A0011124FF27591B99F0593F50F4503E64
:1019200068F11A16F040A22F232F342F4427585F56
:10193000F3CF469537952795A795F0405395C9F76E
:101940007EF41F16BA0B620B730B840BBAF0915026
:10195000A1F0FF0FBB1F661F771F881FC2F70EC0C5
:10196000BA0F621F731F841F48F487957795679598
:10197000B795F7959E3F08F0B0CF9395880F08F084
:101980009927EE0F9795879508950E94AF0D08F45B
:1019900081E008950E94DE0C0C94EA0D0E94E30D94
:1019A00058F00E94DC0D40F029F45F3F29F00C94C0
:1019B000D30D51110C941E0E0C94D90D0E94FB0DE9
:1019C00068F39923B1F3552391F3951B550BBB276E
:1019D000AA2762177307840738F09F5F5F4F220FB3
:1019E000331F441FAA1FA9F335D00E2E3AF0E0E8AA
:1019F00032D091505040E695001CCAF72BD0FE2FF4
:101A000029D0660F771F881FBB1F26173707480787
:101A1000AB07B0E809F0BB0B802DBF01FF2793583F
:101A20005F4F3AF09E3F510578F00C94D30D0C9423
:101A30001E0E5F3FE4F3983ED4F386957795679545
:101A4000B795F7959F5FC9F7880F911D9695879574
:101A500097F90895E1E0660F771F881FBB1F621793
:101A600073078407BA0720F0621B730B840BBA0B51
:101A7000EE1F88F7E09508950E94430D6894B11118
:101A80000C941E0E08950E94030E88F09F5798F044
:101A9000B92F9927B751B0F0E1F0660F771F881F73
:101AA000991F1AF0BA95C9F714C0B13091F00E948D
:101AB0001D0EB1E008950C941D0E672F782F882716
:101AC000B85F39F0B93FCCF3869577956795B395B4
:101AD000D9F73EF490958095709561957F4F8F4F23
:101AE0009F4F0895E89409C097FB3EF49095809528
:101AF000709561957F4F8F4F9F4F9923A9F0F92FD4
:101B000096E9BB279395F695879577956795B79551
:101B1000F111F8CFFAF4BB0F11F460FF1BC06F5F37
:101B20007F4F8F4F9F4F16C0882311F096E911C049
:101B3000772321F09EE8872F762F05C0662371F06A
:101B400096E8862F70E060E02AF09A95660F771F7E
:101B5000881FDAF7880F9695879597F90895990F5A
:101B60000008550FAA0BE0E8FEEF16161706E80767
:101B7000F907C0F012161306E407F50798F0621B88
:101B8000730B840B950B39F40A2661F0232B242B5D
:101B9000252B21F408950A2609F4A140A6958FEF7C
:101BA000811D811D089597F99F6780E870E060E0CE
:101BB00008959FEF80EC089500240A9416161706E6
:101BC00018060906089500240A941216130614062E
:101BD00005060895092E0394000C11F4882352F091
:101BE000BB0F40F4BF2B11F460FF04C06F5F7F4F49
:101BF0008F4F9F4F089557FD9058440F551F59F030
:101C00005F3F71F04795880F97FB991F61F09F3FE9
:101C100079F087950895121613061406551FF2CF12
:101C20004695F1DF08C0161617061806991FF1CF62
:101C300086957105610508940895E894BB27662789
:101C40007727CB0197F908950E94370E0C94EA0D7F
:101C50000E94DC0D38F00E94E30D20F0952311F076
:101C60000C94D30D0C94D90D11240C941E0E0E94CB
:101C7000FB0D70F3959FC1F3950F50E0551F629FC8
:101C8000F001729FBB27F00DB11D639FAA27F00DD5
:101C9000B11DAA1F649F6627B00DA11D661F829FFC
:101CA0002227B00DA11D621F739FB00DA11D621FE1
:101CB000839FA00D611D221F749F3327A00D611DFE
:101CC000231F849F600D211D822F762F6A2F1124E0
:101CD0009F5750409AF0F1F088234AF0EE0FFF1F13
:101CE000BB1F661F771F881F91505040A9F79E3F6A
:101CF000510580F00C94D30D0C941E0E5F3FE4F35D
:101D0000983ED4F3869577956795B795F795E795BF
:101D10009F5FC1F7FE2B880F911D9695879597F9C8
:101D20000895DB018F939F930E941C0CBF91AF918C
:101D3000A29F800D911DA39F900DB29F900D112425
:101D400008950F93083090F0982F872F762F652FE6
:101D5000542F432F322F22270850F4CF220F331F46
:101D6000441F551F661F771F881F991F0A95B2F7DA
:101D70000F91089597FB10F8169400080F93083000
:101D800098F00850232F342F452F562F672F782F88
:101D9000892F902DF4CF0594979587957795679522
:101DA00057954795379527950A95AAF70F91089566
:101DB000EE0FFF1F0590F491E02D09940F931F93F0
:101DC000CF93DF938230910510F482E090E0E091B0
:101DD000B202F091B30220E030E0A0E0B0E0309732
:101DE00019F1408151810281138148175907C8F0C8
:101DF0008417950769F4109731F012960C93129797
:101E000013961C9327C00093B2021093B30222C012
:101E10002115310519F04217530718F49A01BD0135
:101E2000EF01DF01F801DBCF21153105F9F0281BA7
:101E3000390B2430310580F48A819B81611571054D
:101E400021F0FB019383828304C09093B3028093BB
:101E5000B202FE01329644C0FE01E20FF31F8193ED
:101E6000919322503109398328833AC02091B002DE
:101E70003091B102232B41F42091020130910301F2
:101E80003093B1022093B002209100013091010102
:101E90002115310541F42DB73EB740910401509111
:101EA0000501241B350BE091B002F091B102E2175D
:101EB000F307A0F42E1B3F0B2817390778F0AC016D
:101EC0004E5F5F4F2417350748F04E0F5F1F50934A
:101ED000B1024093B0028193919302C0E0E0F0E040
:101EE000CF01DF91CF911F910F910895CF93DF9391
:101EF000009709F481C0FC01329713821282A091ED
:101F0000B202B091B302109781F420813181820F27
:101F1000931F2091B0023091B1022817390751F573
:101F2000F093B102E093B00267C0ED0120E030E031
:101F3000CE17DF0740F44A815B819E0141155105B0
:101F4000F1F0EA01F5CFD383C28340815181840F40
:101F5000951FC817D90759F488819981840F951F57
:101F60000296918380838A819B819383828321154A
:101F7000310529F4F093B302E093B2023DC0E901C8
:101F8000FB83EA8349915991C40FD51FEC17FD07D4
:101F900061F480819181840F951F0296E9019983F4
:101FA0008883828193819B838A83E0E0F0E01296AC
:101FB0008D919C911397009719F0FD01DC01F7CFEB
:101FC0008D919C9111979D012E5F3F4F820F931F22
:101FD0002091B0023091B1022817390769F4309787
:101FE00029F41092B3021092B20202C0138212823C
:101FF000B093B102A093B002DF91CF91089581E038
:0C20000090E0F8940C940410F894FFCFCA
:10200C000000B40280000000000023018C00BA0024
:10201C007001EB00C900DD005374617274696E6766
:04202C00000D0A0099
:00000001FF
